:020000040800F2
:100000003007002089010008FB020008F702000801
:10001000F902000839020008D904000800000000B5
:100020000000000000000000000000001D030008A8
:100030003B02000800000000FD020008D503000894
:10004000A3010008A3010008A3010008A301000800
:10005000A3010008A3010008A3010008A3010008F0
:10006000A3010008A3010008A3010008A3010008E0
:10007000A3010008A3010008A3010008A3010008D0
:10008000A3010008A3010008A3010008A3010008C0
:10009000A3010008A3010008A3010008A3010008B0
:1000A000A3010008A3010008A3010008A3010008A0
:1000B000A3010008A3010008A3010008A301000890
:1000C000A3010008A3010008A3010008A301000880
:1000D000A301000829040008A3010008A3010008E7
:1000E000A3010008A3010008A301000800F002F822
:1000F00000F03AF80AA090E8000C82448344AAF188
:100100000107DA4501D100F02FF8AFF2090EBAE885
:100110000F0013F0010F18BFFB1A43F0010318473B
:100120004004000060040000103A24BF78C878C181
:10013000FAD8520724BF30C830C144BF04680C60ED
:10014000704700000023002400250026103A28BF35
:1001500078C1FBD8520728BF30C148BF0B60704739
:100160001FB51FBD10B510BD00F033F81146FFF7E5
:10017000F7FF00F0B3F900F051F803B4FFF7F2FF16
:1001800003BC00F0AAF9000009488047094800476D
:10019000FEE7FEE7FEE7FEE7FEE7FEE7FEE7FEE737
:1001A000FEE7FEE704480549054A064B7047000094
:1001B000D9030008ED0000083001002030070020BE
:1001C00030030020300300207047704770477047AD
:1001D0007047754600F02CF8AE4605006946534658
:1001E00020F00700854618B020B5FFF7DBFFBDE81B
:1001F00020404FF000064FF000074FF000084FF08E
:10020000000B21F00701AC46ACE8C009ACE8C0091E
:10021000ACE8C009ACE8C0098D46704710B504468B
:10022000AFF300802046BDE81040FFF7A6BF0000F6
:1002300000487047CC000020FEE77047002100E036
:10024000491C8142FCD370472DE9F0410022CC7853
:1002500004F00F03E40601D58C7823430C784FF0AB
:100260000F0714F0FF0F4FF0010C1CD005680CFABB
:1002700002F40E882640A64211D1960007FA06F82D
:1002800025EA080503FA06F848EA0505CE78282E7F
:1002900002D0482E02D002E0446100E00461521C0A
:1002A000082AE4D305600A88FF2A1ED9456800227F
:1002B00002F108060CFA06F40E882640A64210D178
:1002C000960007FA06F825EA080503FA06F848EA50
:1002D0000505CE78282E00D14461CE78482E00D175
:1002E0000461521C082AE3D34560BDE8F0814161F6
:1002F000704701617047FEE7FEE7704770470000F6
:10030000054A002903D091690143916170479169C1
:10031000814391617047000000100240704700F077
:1003200001B800000CB50022019200922748016834
:1003300041F4803101604FF4A063016801F40031A1
:1003400000910199491C0191009911B901999942B3
:10035000F3D10168890302D50121009100E00092E8
:100360000099012930D11A490A6842F010020A6046
:100370000A6822F003020A600A6842F002020A6078
:100380004168416041684160416841F48061416079
:10039000416821F47C114160416841F4E8114160F9
:1003A000016841F08071016001688901FCD54168F4
:1003B00021F003014160416841F002014160416860
:1003C000C1F381010229FAD10CBD000000100240E6
:1003D000002002407047000010B50F48016841F04E
:1003E0000101016041680D4A1140416001680C4AF9
:1003F00011400160016821F480210160416821F40D
:10040000FE0141604FF41F018160FFF788FF05493D
:100410004FF00060086010BD001002400000FFF8BF
:10042000FFFFF6FE08ED00E070B5164C40F22551D6
:10043000204600F02DF800280ED0204600F048F8A5
:10044000C1B2114A1088030406D444044FF00003DB
:1004500007D50A2901D0138070BD40F400401080F8
:1004600070BD0D290AD0094DC0F30D042955401C5B
:1004700080B21080C728F3D9138070BD40F480404B
:10048000108070BD003801400000002004000020F2
:1004900070B5002440F66A12C1F3421301F01F0543
:1004A000012606FA05F2012B0CD0022B0DD0838A0F
:1004B0001340090A8E40008830400BB100B101247E
:1004C000204670BD83891340F3E7038A1340F0E7A9
:1004D0008088C0F308007047FEE7704708B5012127
:1004E0002420FFF70DFF4FF48074ADF8004010207A
:1004F0008DF8030003208DF80200164D694628464A
:10050000FFF7A2FE21462846FFF7F3FE0421ADF8CF
:100510000010114E69463046FFF796FE0421304622
:10052000FFF7E7FE0D4F21462846FFF7E0FE0421C6
:100530003046FFF7DEFE3846FFF780FE21462846AC
:10054000FFF7D7FE04213046FFF7D1FE3846FFF70C
:1005500075FEE8E70008014000140140C0C62D0008
:1005600080050008000000200400000028010008A9
:1005700084050008040000202C0700004401000846
:040580000000000077
:040000050800018965
:00000001FF
